{
  "_format": "hh-sol-artifact-1",
  "contractName": "MyEpicNFT",
  "sourceName": "contracts/MyEpicNFT.sol",
  "abi": [
    {
      "inputs": [],
      "stateMutability": "nonpayable",
      "type": "constructor"
    },
    {
      "anonymous": false,
      "inputs": [
        {
          "indexed": true,
          "internalType": "address",
          "name": "owner",
          "type": "address"
        },
        {
          "indexed": true,
          "internalType": "address",
          "name": "approved",
          "type": "address"
        },
        {
          "indexed": true,
          "internalType": "uint256",
          "name": "tokenId",
          "type": "uint256"
        }
      ],
      "name": "Approval",
      "type": "event"
    },
    {
      "anonymous": false,
      "inputs": [
        {
          "indexed": true,
          "internalType": "address",
          "name": "owner",
          "type": "address"
        },
        {
          "indexed": true,
          "internalType": "address",
          "name": "operator",
          "type": "address"
        },
        {
          "indexed": false,
          "internalType": "bool",
          "name": "approved",
          "type": "bool"
        }
      ],
      "name": "ApprovalForAll",
      "type": "event"
    },
    {
      "anonymous": false,
      "inputs": [
        {
          "indexed": false,
          "internalType": "address",
          "name": "sender",
          "type": "address"
        },
        {
          "indexed": false,
          "internalType": "uint256",
          "name": "tokenId",
          "type": "uint256"
        }
      ],
      "name": "NewEpicNFTMinted",
      "type": "event"
    },
    {
      "anonymous": false,
      "inputs": [
        {
          "indexed": true,
          "internalType": "address",
          "name": "from",
          "type": "address"
        },
        {
          "indexed": true,
          "internalType": "address",
          "name": "to",
          "type": "address"
        },
        {
          "indexed": true,
          "internalType": "uint256",
          "name": "tokenId",
          "type": "uint256"
        }
      ],
      "name": "Transfer",
      "type": "event"
    },
    {
      "inputs": [
        {
          "internalType": "address",
          "name": "to",
          "type": "address"
        },
        {
          "internalType": "uint256",
          "name": "tokenId",
          "type": "uint256"
        }
      ],
      "name": "approve",
      "outputs": [],
      "stateMutability": "nonpayable",
      "type": "function"
    },
    {
      "inputs": [
        {
          "internalType": "address",
          "name": "owner",
          "type": "address"
        }
      ],
      "name": "balanceOf",
      "outputs": [
        {
          "internalType": "uint256",
          "name": "",
          "type": "uint256"
        }
      ],
      "stateMutability": "view",
      "type": "function"
    },
    {
      "inputs": [
        {
          "internalType": "uint256",
          "name": "tokenId",
          "type": "uint256"
        }
      ],
      "name": "burn",
      "outputs": [],
      "stateMutability": "nonpayable",
      "type": "function"
    },
    {
      "inputs": [
        {
          "internalType": "uint256",
          "name": "tokenId",
          "type": "uint256"
        }
      ],
      "name": "getApproved",
      "outputs": [
        {
          "internalType": "address",
          "name": "",
          "type": "address"
        }
      ],
      "stateMutability": "view",
      "type": "function"
    },
    {
      "inputs": [
        {
          "internalType": "address",
          "name": "owner",
          "type": "address"
        },
        {
          "internalType": "address",
          "name": "operator",
          "type": "address"
        }
      ],
      "name": "isApprovedForAll",
      "outputs": [
        {
          "internalType": "bool",
          "name": "",
          "type": "bool"
        }
      ],
      "stateMutability": "view",
      "type": "function"
    },
    {
      "inputs": [
        {
          "internalType": "string",
          "name": "_fileHash",
          "type": "string"
        },
        {
          "internalType": "string",
          "name": "_fileName",
          "type": "string"
        },
        {
          "internalType": "string",
          "name": "_fileDescription",
          "type": "string"
        }
      ],
      "name": "makeAnEpicNFT",
      "outputs": [],
      "stateMutability": "nonpayable",
      "type": "function"
    },
    {
      "inputs": [],
      "name": "name",
      "outputs": [
        {
          "internalType": "string",
          "name": "",
          "type": "string"
        }
      ],
      "stateMutability": "view",
      "type": "function"
    },
    {
      "inputs": [
        {
          "internalType": "uint256",
          "name": "tokenId",
          "type": "uint256"
        }
      ],
      "name": "ownerOf",
      "outputs": [
        {
          "internalType": "address",
          "name": "",
          "type": "address"
        }
      ],
      "stateMutability": "view",
      "type": "function"
    },
    {
      "inputs": [
        {
          "internalType": "address",
          "name": "from",
          "type": "address"
        },
        {
          "internalType": "address",
          "name": "to",
          "type": "address"
        },
        {
          "internalType": "uint256",
          "name": "tokenId",
          "type": "uint256"
        }
      ],
      "name": "safeTransferFrom",
      "outputs": [],
      "stateMutability": "nonpayable",
      "type": "function"
    },
    {
      "inputs": [
        {
          "internalType": "address",
          "name": "from",
          "type": "address"
        },
        {
          "internalType": "address",
          "name": "to",
          "type": "address"
        },
        {
          "internalType": "uint256",
          "name": "tokenId",
          "type": "uint256"
        },
        {
          "internalType": "bytes",
          "name": "_data",
          "type": "bytes"
        }
      ],
      "name": "safeTransferFrom",
      "outputs": [],
      "stateMutability": "nonpayable",
      "type": "function"
    },
    {
      "inputs": [
        {
          "internalType": "address",
          "name": "operator",
          "type": "address"
        },
        {
          "internalType": "bool",
          "name": "approved",
          "type": "bool"
        }
      ],
      "name": "setApprovalForAll",
      "outputs": [],
      "stateMutability": "nonpayable",
      "type": "function"
    },
    {
      "inputs": [
        {
          "internalType": "bytes4",
          "name": "interfaceId",
          "type": "bytes4"
        }
      ],
      "name": "supportsInterface",
      "outputs": [
        {
          "internalType": "bool",
          "name": "",
          "type": "bool"
        }
      ],
      "stateMutability": "view",
      "type": "function"
    },
    {
      "inputs": [],
      "name": "symbol",
      "outputs": [
        {
          "internalType": "string",
          "name": "",
          "type": "string"
        }
      ],
      "stateMutability": "view",
      "type": "function"
    },
    {
      "inputs": [
        {
          "internalType": "uint256",
          "name": "tokenId",
          "type": "uint256"
        }
      ],
      "name": "tokenURI",
      "outputs": [
        {
          "internalType": "string",
          "name": "",
          "type": "string"
        }
      ],
      "stateMutability": "view",
      "type": "function"
    },
    {
      "inputs": [
        {
          "internalType": "address",
          "name": "from",
          "type": "address"
        },
        {
          "internalType": "address",
          "name": "to",
          "type": "address"
        },
        {
          "internalType": "uint256",
          "name": "tokenId",
          "type": "uint256"
        }
      ],
      "name": "transferFrom",
      "outputs": [],
      "stateMutability": "nonpayable",
      "type": "function"
    }
  ],
  "bytecode": "0x60806040523480156200001157600080fd5b506040518060400160405280600881526020017f526f6869744e46540000000000000000000000000000000000000000000000008152506040518060400160405280600381526020017f5256500000000000000000000000000000000000000000000000000000000000815250816000908051906020019062000096929190620001cf565b508060019080519060200190620000af929190620001cf565b505050620000fd6040518060400160405280601e81526020017f54686973206973206d79204e465420636f6e74726163742e20576f61682100008152506200010360201b62000c9f1760201c565b620003ac565b620001a3816040516024016200011a9190620002c0565b6040516020818303038152906040527f41304fac000000000000000000000000000000000000000000000000000000007bffffffffffffffffffffffffffffffffffffffffffffffffffffffff19166020820180517bffffffffffffffffffffffffffffffffffffffffffffffffffffffff8381831617835250505050620001a660201b60201c565b50565b60008151905060006a636f6e736f6c652e6c6f679050602083016000808483855afa5050505050565b828054620001dd9062000336565b90600052602060002090601f0160209004810192826200020157600085556200024d565b82601f106200021c57805160ff19168380011785556200024d565b828001600101855582156200024d579182015b828111156200024c5782518255916020019190600101906200022f565b5b5090506200025c919062000260565b5090565b5b808211156200027b57600081600090555060010162000261565b5090565b60006200028c82620002e4565b620002988185620002ef565b9350620002aa81856020860162000300565b620002b5816200039b565b840191505092915050565b60006020820190508181036000830152620002dc81846200027f565b905092915050565b600081519050919050565b600082825260208201905092915050565b60005b838110156200032057808201518184015260208101905062000303565b8381111562000330576000848401525b50505050565b600060028204905060018216806200034f57607f821691505b602082108114156200036657620003656200036c565b5b50919050565b7f4e487b7100000000000000000000000000000000000000000000000000000000600052602260045260246000fd5b6000601f19601f8301169050919050565b6134c280620003bc6000396000f3fe608060405234801561001057600080fd5b50600436106100f55760003560e01c80636352211e11610097578063a612854611610066578063a612854614610282578063b88d4fde1461029e578063c87b56dd146102ba578063e985e9c5146102ea576100f5565b80636352211e146101e857806370a082311461021857806395d89b4114610248578063a22cb46514610266576100f5565b8063095ea7b3116100d3578063095ea7b31461017857806323b872dd1461019457806342842e0e146101b057806342966c68146101cc576100f5565b806301ffc9a7146100fa57806306fdde031461012a578063081812fc14610148575b600080fd5b610114600480360381019061010f9190612278565b61031a565b6040516101219190612d1d565b60405180910390f35b6101326103fc565b60405161013f9190612d38565b60405180910390f35b610162600480360381019061015d9190612361565b61048e565b60405161016f9190612c8d565b60405180910390f35b610192600480360381019061018d919061223c565b610513565b005b6101ae60048036038101906101a99190612136565b61062b565b005b6101ca60048036038101906101c59190612136565b61068b565b005b6101e660048036038101906101e19190612361565b6106ab565b005b61020260048036038101906101fd9190612361565b6106b7565b60405161020f9190612c8d565b60405180910390f35b610232600480360381019061022d91906120d1565b610769565b60405161023f9190612f98565b60405180910390f35b610250610821565b60405161025d9190612d38565b60405180910390f35b610280600480360381019061027b9190612200565b6108b3565b005b61029c600480360381019061029791906122ca565b6108c9565b005b6102b860048036038101906102b39190612185565b610a57565b005b6102d460048036038101906102cf9190612361565b610ab9565b6040516102e19190612d38565b60405180910390f35b61030460048036038101906102ff91906120fa565b610c0b565b6040516103119190612d1d565b60405180910390f35b60007f80ac58cd000000000000000000000000000000000000000000000000000000007bffffffffffffffffffffffffffffffffffffffffffffffffffffffff1916827bffffffffffffffffffffffffffffffffffffffffffffffffffffffff191614806103e557507f5b5e139f000000000000000000000000000000000000000000000000000000007bffffffffffffffffffffffffffffffffffffffffffffffffffffffff1916827bffffffffffffffffffffffffffffffffffffffffffffffffffffffff1916145b806103f557506103f482610d38565b5b9050919050565b60606000805461040b90613252565b80601f016020809104026020016040519081016040528092919081815260200182805461043790613252565b80156104845780601f1061045957610100808354040283529160200191610484565b820191906000526020600020905b81548152906001019060200180831161046757829003601f168201915b5050505050905090565b600061049982610da2565b6104d8576040517f08c379a00000000000000000000000000000000000000000000000000000000081526004016104cf90612ef8565b60405180910390fd5b6004600083815260200190815260200160002060009054906101000a900473ffffffffffffffffffffffffffffffffffffffff169050919050565b600061051e826106b7565b90508073ffffffffffffffffffffffffffffffffffffffff168373ffffffffffffffffffffffffffffffffffffffff16141561058f576040517f08c379a000000000000000000000000000000000000000000000000000000000815260040161058690612f58565b60405180910390fd5b8073ffffffffffffffffffffffffffffffffffffffff166105ae610e0e565b73ffffffffffffffffffffffffffffffffffffffff1614806105dd57506105dc816105d7610e0e565b610c0b565b5b61061c576040517f08c379a000000000000000000000000000000000000000000000000000000000815260040161061390612e38565b60405180910390fd5b6106268383610e16565b505050565b61063c610636610e0e565b82610ecf565b61067b576040517f08c379a000000000000000000000000000000000000000000000000000000000815260040161067290612f78565b60405180910390fd5b610686838383610fad565b505050565b6106a683838360405180602001604052806000815250610a57565b505050565b6106b481611209565b50565b6000806002600084815260200190815260200160002060009054906101000a900473ffffffffffffffffffffffffffffffffffffffff169050600073ffffffffffffffffffffffffffffffffffffffff168173ffffffffffffffffffffffffffffffffffffffff161415610760576040517f08c379a000000000000000000000000000000000000000000000000000000000815260040161075790612e78565b60405180910390fd5b80915050919050565b60008073ffffffffffffffffffffffffffffffffffffffff168273ffffffffffffffffffffffffffffffffffffffff1614156107da576040517f08c379a00000000000000000000000000000000000000000000000000000000081526004016107d190612e58565b60405180910390fd5b600360008373ffffffffffffffffffffffffffffffffffffffff1673ffffffffffffffffffffffffffffffffffffffff168152602001908152602001600020549050919050565b60606001805461083090613252565b80601f016020809104026020016040519081016040528092919081815260200182805461085c90613252565b80156108a95780601f1061087e576101008083540402835291602001916108a9565b820191906000526020600020905b81548152906001019060200180831161088c57829003601f168201915b5050505050905090565b6108c56108be610e0e565b838361125c565b5050565b60006108d560076113c9565b90506000846040516020016108ea9190612bec565b6040516020818303038152906040529050600061092985858460405160200161091593929190612c0e565b6040516020818303038152906040526113d7565b905060008160405160200161093e9190612c6b565b604051602081830303815290604052905061098d6040518060400160405280601581526020017f0a2d2d2d2d2d2d2d2d2d2d2d2d2d2d2d2d2d2d2d2d0000000000000000000000815250610c9f565b61099681610c9f565b6109d46040518060400160405280601581526020017f2d2d2d2d2d2d2d2d2d2d2d2d2d2d2d2d2d2d2d2d0a0000000000000000000000815250610c9f565b6109de3385611595565b6109e884826115b3565b6109f26007611627565b610a1560405180606001604052806025815260200161342860259139853361163d565b7febb98688741ffa4c7589bf325de30cf7becb63de567842e1ccdb6cb949fdc82c3385604051610a46929190612cf4565b60405180910390a150505050505050565b610a68610a62610e0e565b83610ecf565b610aa7576040517f08c379a0000000000000000000000000000000000000000000000000000000008152600401610a9e90612f78565b60405180910390fd5b610ab3848484846116dc565b50505050565b6060610ac482610da2565b610b03576040517f08c379a0000000000000000000000000000000000000000000000000000000008152600401610afa90612ed8565b60405180910390fd5b6000600660008481526020019081526020016000208054610b2390613252565b80601f0160208091040260200160405190810160405280929190818152602001828054610b4f90613252565b8015610b9c5780601f10610b7157610100808354040283529160200191610b9c565b820191906000526020600020905b815481529060010190602001808311610b7f57829003601f168201915b505050505090506000610bad611738565b9050600081511415610bc3578192505050610c06565b600082511115610bf8578082604051602001610be0929190612bc8565b60405160208183030381529060405292505050610c06565b610c018461174f565b925050505b919050565b6000600560008473ffffffffffffffffffffffffffffffffffffffff1673ffffffffffffffffffffffffffffffffffffffff16815260200190815260200160002060008373ffffffffffffffffffffffffffffffffffffffff1673ffffffffffffffffffffffffffffffffffffffff16815260200190815260200160002060009054906101000a900460ff16905092915050565b610d3581604051602401610cb39190612d38565b6040516020818303038152906040527f41304fac000000000000000000000000000000000000000000000000000000007bffffffffffffffffffffffffffffffffffffffffffffffffffffffff19166020820180517bffffffffffffffffffffffffffffffffffffffffffffffffffffffff83818316178352505050506117f6565b50565b60007f01ffc9a7000000000000000000000000000000000000000000000000000000007bffffffffffffffffffffffffffffffffffffffffffffffffffffffff1916827bffffffffffffffffffffffffffffffffffffffffffffffffffffffff1916149050919050565b60008073ffffffffffffffffffffffffffffffffffffffff166002600084815260200190815260200160002060009054906101000a900473ffffffffffffffffffffffffffffffffffffffff1673ffffffffffffffffffffffffffffffffffffffff1614159050919050565b600033905090565b816004600083815260200190815260200160002060006101000a81548173ffffffffffffffffffffffffffffffffffffffff021916908373ffffffffffffffffffffffffffffffffffffffff160217905550808273ffffffffffffffffffffffffffffffffffffffff16610e89836106b7565b73ffffffffffffffffffffffffffffffffffffffff167f8c5be1e5ebec7d5bd14f71427d1e84f3dd0314c0f7b2291e5b200ac8c7c3b92560405160405180910390a45050565b6000610eda82610da2565b610f19576040517f08c379a0000000000000000000000000000000000000000000000000000000008152600401610f1090612e18565b60405180910390fd5b6000610f24836106b7565b90508073ffffffffffffffffffffffffffffffffffffffff168473ffffffffffffffffffffffffffffffffffffffff161480610f9357508373ffffffffffffffffffffffffffffffffffffffff16610f7b8461048e565b73ffffffffffffffffffffffffffffffffffffffff16145b80610fa45750610fa38185610c0b565b5b91505092915050565b8273ffffffffffffffffffffffffffffffffffffffff16610fcd826106b7565b73ffffffffffffffffffffffffffffffffffffffff1614611023576040517f08c379a000000000000000000000000000000000000000000000000000000000815260040161101a90612f18565b60405180910390fd5b600073ffffffffffffffffffffffffffffffffffffffff168273ffffffffffffffffffffffffffffffffffffffff161415611093576040517f08c379a000000000000000000000000000000000000000000000000000000000815260040161108a90612dd8565b60405180910390fd5b61109e83838361181f565b6110a9600082610e16565b6001600360008573ffffffffffffffffffffffffffffffffffffffff1673ffffffffffffffffffffffffffffffffffffffff16815260200190815260200160002060008282546110f99190613168565b925050819055506001600360008473ffffffffffffffffffffffffffffffffffffffff1673ffffffffffffffffffffffffffffffffffffffff16815260200190815260200160002060008282546111509190613087565b92505081905550816002600083815260200190815260200160002060006101000a81548173ffffffffffffffffffffffffffffffffffffffff021916908373ffffffffffffffffffffffffffffffffffffffff160217905550808273ffffffffffffffffffffffffffffffffffffffff168473ffffffffffffffffffffffffffffffffffffffff167fddf252ad1be2c89b69c2b068fc378daa952ba7f163c4a11628f55a4df523b3ef60405160405180910390a4505050565b61121281611824565b600060066000838152602001908152602001600020805461123290613252565b905014611259576006600082815260200190815260200160002060006112589190611eb5565b5b50565b8173ffffffffffffffffffffffffffffffffffffffff168373ffffffffffffffffffffffffffffffffffffffff1614156112cb576040517f08c379a00000000000000000000000000000000000000000000000000000000081526004016112c290612df8565b60405180910390fd5b80600560008573ffffffffffffffffffffffffffffffffffffffff1673ffffffffffffffffffffffffffffffffffffffff16815260200190815260200160002060008473ffffffffffffffffffffffffffffffffffffffff1673ffffffffffffffffffffffffffffffffffffffff16815260200190815260200160002060006101000a81548160ff0219169083151502179055508173ffffffffffffffffffffffffffffffffffffffff168373ffffffffffffffffffffffffffffffffffffffff167f17307eab39ab6107e8899845ad3d59bd9653f200f220920489ca2b5937696c31836040516113bc9190612d1d565b60405180910390a3505050565b600081600001549050919050565b606060008251905060008114156114005760405180602001604052806000815250915050611590565b600060036002836114119190613087565b61141b91906130dd565b6004611427919061310e565b905060006020826114389190613087565b67ffffffffffffffff811115611477577f4e487b7100000000000000000000000000000000000000000000000000000000600052604160045260246000fd5b6040519080825280601f01601f1916602001820160405280156114a95781602001600182028036833780820191505090505b509050600060405180606001604052806040815260200161344d604091399050600181016020830160005b8681101561154d5760038101905062ffffff818a015116603f8160121c168401518060081b905060ff603f83600c1c1686015116810190508060081b905060ff603f8360061c1686015116810190508060081b905060ff603f831686015116810190508060e01b905080845260048401935050506114d4565b506003860660018114611567576002811461157757611582565b613d3d60f01b6002830352611582565b603d60f81b60018303525b508484525050819450505050505b919050565b6115af828260405180602001604052806000815250611935565b5050565b6115bc82610da2565b6115fb576040517f08c379a00000000000000000000000000000000000000000000000000000000081526004016115f290612e98565b60405180910390fd5b80600660008481526020019081526020016000209080519060200190611622929190611ef5565b505050565b6001816000016000828254019250508190555050565b6116d783838360405160240161165593929190612d5a565b6040516020818303038152906040527fe3849f79000000000000000000000000000000000000000000000000000000007bffffffffffffffffffffffffffffffffffffffffffffffffffffffff19166020820180517bffffffffffffffffffffffffffffffffffffffffffffffffffffffff83818316178352505050506117f6565b505050565b6116e7848484610fad565b6116f384848484611990565b611732576040517f08c379a000000000000000000000000000000000000000000000000000000000815260040161172990612d98565b60405180910390fd5b50505050565b606060405180602001604052806000815250905090565b606061175a82610da2565b611799576040517f08c379a000000000000000000000000000000000000000000000000000000000815260040161179090612f38565b60405180910390fd5b60006117a3611738565b905060008151116117c357604051806020016040528060008152506117ee565b806117cd84611b27565b6040516020016117de929190612bc8565b6040516020818303038152906040525b915050919050565b60008151905060006a636f6e736f6c652e6c6f679050602083016000808483855afa5050505050565b505050565b600061182f826106b7565b905061183d8160008461181f565b611848600083610e16565b6001600360008373ffffffffffffffffffffffffffffffffffffffff1673ffffffffffffffffffffffffffffffffffffffff16815260200190815260200160002060008282546118989190613168565b925050819055506002600083815260200190815260200160002060006101000a81549073ffffffffffffffffffffffffffffffffffffffff021916905581600073ffffffffffffffffffffffffffffffffffffffff168273ffffffffffffffffffffffffffffffffffffffff167fddf252ad1be2c89b69c2b068fc378daa952ba7f163c4a11628f55a4df523b3ef60405160405180910390a45050565b61193f8383611cd4565b61194c6000848484611990565b61198b576040517f08c379a000000000000000000000000000000000000000000000000000000000815260040161198290612d98565b60405180910390fd5b505050565b60006119b18473ffffffffffffffffffffffffffffffffffffffff16611ea2565b15611b1a578373ffffffffffffffffffffffffffffffffffffffff1663150b7a026119da610e0e565b8786866040518563ffffffff1660e01b81526004016119fc9493929190612ca8565b602060405180830381600087803b158015611a1657600080fd5b505af1925050508015611a4757506040513d601f19601f82011682018060405250810190611a4491906122a1565b60015b611aca573d8060008114611a77576040519150601f19603f3d011682016040523d82523d6000602084013e611a7c565b606091505b50600081511415611ac2576040517f08c379a0000000000000000000000000000000000000000000000000000000008152600401611ab990612d98565b60405180910390fd5b805181602001fd5b63150b7a0260e01b7bffffffffffffffffffffffffffffffffffffffffffffffffffffffff1916817bffffffffffffffffffffffffffffffffffffffffffffffffffffffff191614915050611b1f565b600190505b949350505050565b60606000821415611b6f576040518060400160405280600181526020017f30000000000000000000000000000000000000000000000000000000000000008152509050611ccf565b600082905060005b60008214611ba1578080611b8a90613284565b915050600a82611b9a91906130dd565b9150611b77565b60008167ffffffffffffffff811115611be3577f4e487b7100000000000000000000000000000000000000000000000000000000600052604160045260246000fd5b6040519080825280601f01601f191660200182016040528015611c155781602001600182028036833780820191505090505b5090505b60008514611cc857600182611c2e9190613168565b9150600a85611c3d91906132cd565b6030611c499190613087565b60f81b818381518110611c85577f4e487b7100000000000000000000000000000000000000000000000000000000600052603260045260246000fd5b60200101907effffffffffffffffffffffffffffffffffffffffffffffffffffffffffffff1916908160001a905350600a85611cc191906130dd565b9450611c19565b8093505050505b919050565b600073ffffffffffffffffffffffffffffffffffffffff168273ffffffffffffffffffffffffffffffffffffffff161415611d44576040517f08c379a0000000000000000000000000000000000000000000000000000000008152600401611d3b90612eb8565b60405180910390fd5b611d4d81610da2565b15611d8d576040517f08c379a0000000000000000000000000000000000000000000000000000000008152600401611d8490612db8565b60405180910390fd5b611d996000838361181f565b6001600360008473ffffffffffffffffffffffffffffffffffffffff1673ffffffffffffffffffffffffffffffffffffffff1681526020019081526020016000206000828254611de99190613087565b92505081905550816002600083815260200190815260200160002060006101000a81548173ffffffffffffffffffffffffffffffffffffffff021916908373ffffffffffffffffffffffffffffffffffffffff160217905550808273ffffffffffffffffffffffffffffffffffffffff16600073ffffffffffffffffffffffffffffffffffffffff167fddf252ad1be2c89b69c2b068fc378daa952ba7f163c4a11628f55a4df523b3ef60405160405180910390a45050565b600080823b905060008111915050919050565b508054611ec190613252565b6000825580601f10611ed35750611ef2565b601f016020900490600052602060002090810190611ef19190611f7b565b5b50565b828054611f0190613252565b90600052602060002090601f016020900481019282611f235760008555611f6a565b82601f10611f3c57805160ff1916838001178555611f6a565b82800160010185558215611f6a579182015b82811115611f69578251825591602001919060010190611f4e565b5b509050611f779190611f7b565b5090565b5b80821115611f94576000816000905550600101611f7c565b5090565b6000611fab611fa684612fe4565b612fb3565b905082815260208101848484011115611fc357600080fd5b611fce848285613210565b509392505050565b6000611fe9611fe484613014565b612fb3565b90508281526020810184848401111561200157600080fd5b61200c848285613210565b509392505050565b600081359050612023816133cb565b92915050565b600081359050612038816133e2565b92915050565b60008135905061204d816133f9565b92915050565b600081519050612062816133f9565b92915050565b600082601f83011261207957600080fd5b8135612089848260208601611f98565b91505092915050565b600082601f8301126120a357600080fd5b81356120b3848260208601611fd6565b91505092915050565b6000813590506120cb81613410565b92915050565b6000602082840312156120e357600080fd5b60006120f184828501612014565b91505092915050565b6000806040838503121561210d57600080fd5b600061211b85828601612014565b925050602061212c85828601612014565b9150509250929050565b60008060006060848603121561214b57600080fd5b600061215986828701612014565b935050602061216a86828701612014565b925050604061217b868287016120bc565b9150509250925092565b6000806000806080858703121561219b57600080fd5b60006121a987828801612014565b94505060206121ba87828801612014565b93505060406121cb878288016120bc565b925050606085013567ffffffffffffffff8111156121e857600080fd5b6121f487828801612068565b91505092959194509250565b6000806040838503121561221357600080fd5b600061222185828601612014565b925050602061223285828601612029565b9150509250929050565b6000806040838503121561224f57600080fd5b600061225d85828601612014565b925050602061226e858286016120bc565b9150509250929050565b60006020828403121561228a57600080fd5b60006122988482850161203e565b91505092915050565b6000602082840312156122b357600080fd5b60006122c184828501612053565b91505092915050565b6000806000606084860312156122df57600080fd5b600084013567ffffffffffffffff8111156122f957600080fd5b61230586828701612092565b935050602084013567ffffffffffffffff81111561232257600080fd5b61232e86828701612092565b925050604084013567ffffffffffffffff81111561234b57600080fd5b61235786828701612092565b9150509250925092565b60006020828403121561237357600080fd5b6000612381848285016120bc565b91505092915050565b6123938161319c565b82525050565b6123a2816131ae565b82525050565b60006123b382613044565b6123bd818561305a565b93506123cd81856020860161321f565b6123d6816133ba565b840191505092915050565b60006123ec8261304f565b6123f6818561306b565b935061240681856020860161321f565b61240f816133ba565b840191505092915050565b60006124258261304f565b61242f818561307c565b935061243f81856020860161321f565b80840191505092915050565b600061245860328361306b565b91507f4552433732313a207472616e7366657220746f206e6f6e20455243373231526560008301527f63656976657220696d706c656d656e74657200000000000000000000000000006020830152604082019050919050565b60006124be601c8361306b565b91507f4552433732313a20746f6b656e20616c7265616479206d696e746564000000006000830152602082019050919050565b60006124fe60248361306b565b91507f4552433732313a207472616e7366657220746f20746865207a65726f2061646460008301527f72657373000000000000000000000000000000000000000000000000000000006020830152604082019050919050565b600061256460198361306b565b91507f4552433732313a20617070726f766520746f2063616c6c6572000000000000006000830152602082019050919050565b60006125a4602c8361306b565b91507f4552433732313a206f70657261746f7220717565727920666f72206e6f6e657860008301527f697374656e7420746f6b656e00000000000000000000000000000000000000006020830152604082019050919050565b600061260a60388361306b565b91507f4552433732313a20617070726f76652063616c6c6572206973206e6f74206f7760008301527f6e6572206e6f7220617070726f76656420666f7220616c6c00000000000000006020830152604082019050919050565b600061267060158361307c565b91507f68747470733a2f2f697066732e696f2f697066732f00000000000000000000006000830152601582019050919050565b60006126b0602a8361306b565b91507f4552433732313a2062616c616e636520717565727920666f7220746865207a6560008301527f726f2061646472657373000000000000000000000000000000000000000000006020830152604082019050919050565b600061271660298361306b565b91507f4552433732313a206f776e657220717565727920666f72206e6f6e657869737460008301527f656e7420746f6b656e00000000000000000000000000000000000000000000006020830152604082019050919050565b600061277c602e8361306b565b91507f45524337323155524953746f726167653a2055524920736574206f66206e6f6e60008301527f6578697374656e7420746f6b656e0000000000000000000000000000000000006020830152604082019050919050565b60006127e260028361307c565b91507f227d0000000000000000000000000000000000000000000000000000000000006000830152600282019050919050565b600061282260208361306b565b91507f4552433732313a206d696e7420746f20746865207a65726f20616464726573736000830152602082019050919050565b6000612862600d8361307c565b91507f222c2022696d616765223a2022000000000000000000000000000000000000006000830152600d82019050919050565b60006128a260318361306b565b91507f45524337323155524953746f726167653a2055524920717565727920666f722060008301527f6e6f6e6578697374656e7420746f6b656e0000000000000000000000000000006020830152604082019050919050565b6000612908602c8361306b565b91507f4552433732313a20617070726f76656420717565727920666f72206e6f6e657860008301527f697374656e7420746f6b656e00000000000000000000000000000000000000006020830152604082019050919050565b600061296e60128361307c565b91507f222c20226465736372697074696f6e223a2200000000000000000000000000006000830152601282019050919050565b60006129ae60298361306b565b91507f4552433732313a207472616e73666572206f6620746f6b656e2074686174206960008301527f73206e6f74206f776e00000000000000000000000000000000000000000000006020830152604082019050919050565b6000612a14602f8361306b565b91507f4552433732314d657461646174613a2055524920717565727920666f72206e6f60008301527f6e6578697374656e7420746f6b656e00000000000000000000000000000000006020830152604082019050919050565b6000612a7a600a8361307c565b91507f7b226e616d65223a2022000000000000000000000000000000000000000000006000830152600a82019050919050565b6000612aba60218361306b565b91507f4552433732313a20617070726f76616c20746f2063757272656e74206f776e6560008301527f72000000000000000000000000000000000000000000000000000000000000006020830152604082019050919050565b6000612b20601d8361307c565b91507f646174613a6170706c69636174696f6e2f6a736f6e3b6261736536342c0000006000830152601d82019050919050565b6000612b6060318361306b565b91507f4552433732313a207472616e736665722063616c6c6572206973206e6f74206f60008301527f776e6572206e6f7220617070726f7665640000000000000000000000000000006020830152604082019050919050565b612bc281613206565b82525050565b6000612bd4828561241a565b9150612be0828461241a565b91508190509392505050565b6000612bf782612663565b9150612c03828461241a565b915081905092915050565b6000612c1982612a6d565b9150612c25828661241a565b9150612c3082612961565b9150612c3c828561241a565b9150612c4782612855565b9150612c53828461241a565b9150612c5e826127d5565b9150819050949350505050565b6000612c7682612b13565b9150612c82828461241a565b915081905092915050565b6000602082019050612ca2600083018461238a565b92915050565b6000608082019050612cbd600083018761238a565b612cca602083018661238a565b612cd76040830185612bb9565b8181036060830152612ce981846123a8565b905095945050505050565b6000604082019050612d09600083018561238a565b612d166020830184612bb9565b9392505050565b6000602082019050612d326000830184612399565b92915050565b60006020820190508181036000830152612d5281846123e1565b905092915050565b60006060820190508181036000830152612d7481866123e1565b9050612d836020830185612bb9565b612d90604083018461238a565b949350505050565b60006020820190508181036000830152612db18161244b565b9050919050565b60006020820190508181036000830152612dd1816124b1565b9050919050565b60006020820190508181036000830152612df1816124f1565b9050919050565b60006020820190508181036000830152612e1181612557565b9050919050565b60006020820190508181036000830152612e3181612597565b9050919050565b60006020820190508181036000830152612e51816125fd565b9050919050565b60006020820190508181036000830152612e71816126a3565b9050919050565b60006020820190508181036000830152612e9181612709565b9050919050565b60006020820190508181036000830152612eb18161276f565b9050919050565b60006020820190508181036000830152612ed181612815565b9050919050565b60006020820190508181036000830152612ef181612895565b9050919050565b60006020820190508181036000830152612f11816128fb565b9050919050565b60006020820190508181036000830152612f31816129a1565b9050919050565b60006020820190508181036000830152612f5181612a07565b9050919050565b60006020820190508181036000830152612f7181612aad565b9050919050565b60006020820190508181036000830152612f9181612b53565b9050919050565b6000602082019050612fad6000830184612bb9565b92915050565b6000604051905081810181811067ffffffffffffffff82111715612fda57612fd961338b565b5b8060405250919050565b600067ffffffffffffffff821115612fff57612ffe61338b565b5b601f19601f8301169050602081019050919050565b600067ffffffffffffffff82111561302f5761302e61338b565b5b601f19601f8301169050602081019050919050565b600081519050919050565b600081519050919050565b600082825260208201905092915050565b600082825260208201905092915050565b600081905092915050565b600061309282613206565b915061309d83613206565b9250827fffffffffffffffffffffffffffffffffffffffffffffffffffffffffffffffff038211156130d2576130d16132fe565b5b828201905092915050565b60006130e882613206565b91506130f383613206565b9250826131035761310261332d565b5b828204905092915050565b600061311982613206565b915061312483613206565b9250817fffffffffffffffffffffffffffffffffffffffffffffffffffffffffffffffff048311821515161561315d5761315c6132fe565b5b828202905092915050565b600061317382613206565b915061317e83613206565b925082821015613191576131906132fe565b5b828203905092915050565b60006131a7826131e6565b9050919050565b60008115159050919050565b60007fffffffff0000000000000000000000000000000000000000000000000000000082169050919050565b600073ffffffffffffffffffffffffffffffffffffffff82169050919050565b6000819050919050565b82818337600083830152505050565b60005b8381101561323d578082015181840152602081019050613222565b8381111561324c576000848401525b50505050565b6000600282049050600182168061326a57607f821691505b6020821081141561327e5761327d61335c565b5b50919050565b600061328f82613206565b91507fffffffffffffffffffffffffffffffffffffffffffffffffffffffffffffffff8214156132c2576132c16132fe565b5b600182019050919050565b60006132d882613206565b91506132e383613206565b9250826132f3576132f261332d565b5b828206905092915050565b7f4e487b7100000000000000000000000000000000000000000000000000000000600052601160045260246000fd5b7f4e487b7100000000000000000000000000000000000000000000000000000000600052601260045260246000fd5b7f4e487b7100000000000000000000000000000000000000000000000000000000600052602260045260246000fd5b7f4e487b7100000000000000000000000000000000000000000000000000000000600052604160045260246000fd5b6000601f19601f8301169050919050565b6133d48161319c565b81146133df57600080fd5b50565b6133eb816131ae565b81146133f657600080fd5b50565b613402816131ba565b811461340d57600080fd5b50565b61341981613206565b811461342457600080fd5b5056fe416e204e465420772f20494420257320686173206265656e206d696e74656420746f2025734142434445464748494a4b4c4d4e4f505152535455565758595a6162636465666768696a6b6c6d6e6f707172737475767778797a303132333435363738392b2fa264697066735822122010d80202cf10128251da18e6a408d82593f0b195b7ae6ff096fc1fae47bf258964736f6c63430008000033",
  "linkReferences": {},
  "deployedLinkReferences": {}
}